:100000000C945D000C9485000C9485000C94850084
:100010000C9485000C9485000C9485000C9485004C
:100020000C9485000C9485000C9485000C942D0391
:100030000C9485000C9485000C9485000C9485002C
:100040000C94E3020C9485000C94B1020C948B0286
:100050000C9485000C9485000C9485000C9485000C
:100060000C9485000C9485000000000024002700FB
:100070002A0000000000250028002B0004040404CE
:100080000404040402020202020203030303030342
:10009000010204081020408001020408102001021F
:1000A00004081020000000080002010000030407FB
:1000B0000000000000000000760311241FBECFEFF7
:1000C000D8E0DEBFCDBF11E0A0E0B1E0EAE9F9E0A1
:1000D00002C005900D92A431B107D9F721E0A4E147
:1000E000B1E001C01D92A53CB207E1F710E0CDE5FB
:1000F000D0E004C02197FE010E94C004CC35D10796
:10010000C9F70E94B6030C94CB040C940000CF9264
:10011000DF92EF92FF920F931F93CF93DF936C01C7
:100120007A018B01C0E0D0E0CE15DF0589F0D8015F
:100130006D918D01D601ED91FC910190F081E02D42
:10014000C6010995892B11F47E0102C02196ECCFDE
:10015000C701DF91CF911F910F91FF90EF90DF903A
:10016000CF900895FC01918D828D981761F0828D5A
:10017000DF01A80FB11D5D968C91928D9F5F9F73DB
:10018000928F90E008958FEF9FEF0895FC01918D7D
:10019000828D981731F0828DE80FF11D858D90E0EA
:1001A00008958FEF9FEF0895FC01918D228D892F87
:1001B00090E0805C9F4F821B91098F73992708956F
:1001C00085E291E00E94D40021E0892B09F420E02F
:1001D000822F0895FC01848DDF01A80FB11DA35A61
:1001E000BF4F2C91848D90E001968F739927848F57
:1001F000A689B7892C93A089B1898C9180648C934E
:10020000938D848D981306C00288F389E02D808138
:100210008F7D80830895EF92FF920F931F93CF936A
:10022000DF93EC0181E0888F9B8D8C8D981305C046
:10023000E889F989808185FD24C0F62E0B8D10E0B8
:100240000F5F1F4F0F731127E02E8C8DE8120CC02B
:100250000FB607FCFACFE889F989808185FFF5CFD1
:10026000CE010E94EA00F1CF8B8DFE01E80FF11D57
:10027000E35AFF4FF0820B8FEA89FB89808180620D
:1002800007C0EE89FF896083E889F98980818064ED
:10029000808381E090E0DF91CF911F910F91FF90DB
:1002A000EF900895CF93DF93EC01888D8823C9F0F8
:1002B000EA89FB89808185FD05C0A889B9898C916F
:1002C00086FD0FC00FB607FCF5CF808185FFF2CF0A
:1002D000A889B9898C9185FFEDCFCE010E94EA00F3
:1002E000E7CFDF91CF91089580E090E0892B29F04E
:1002F0000E94E00081110C9400000895833081F089
:1003000028F4813099F08230A1F008958730A9F067
:100310008830B9F08430D1F4809180008F7D03C0A3
:10032000809180008F7780938000089584B58F77C7
:1003300002C084B58F7D84BD08958091B0008F7711
:1003400003C08091B0008F7D8093B00008951F930B
:10035000CF93DF93282F30E0F901EC55FF4F8491C4
:10036000F901E057FF4FD491F901E458FF4FC491D0
:10037000CC23C9F0162F81110E947E01EC2FF0E0F2
:10038000EE0FFF1FEE58FF4FA591B4918FB7F89471
:10039000111105C09C91ED2FE095E92302C0EC916D
:1003A000ED2BEC938FBFDF91CF911F910895CF93E9
:1003B000DF9390E0FC01E057FF4F2491FC01E458EB
:1003C000FF4F8491882361F190E0880F991FFC0111
:1003D000E859FF4FC591D491FC01EE58FF4FA5910C
:1003E000B491611109C09FB7F89488812095822348
:1003F0008883EC912E230BC0623061F49FB7F89490
:100400003881822F809583238883EC912E2B2C9327
:100410009FBF06C08FB7F894E8812E2B28838FBF2B
:10042000DF91CF9108953FB7F89480911F0190918B
:100430002001A0912101B091220126B5A89B05C001
:100440002F3F19F00196A11DB11D3FBFBA2FA92F53
:10045000982F8827820F911DA11DB11DBC01CD01D0
:1004600042E0660F771F881F991F4A95D1F70895BC
:100470008F929F92AF92BF920F931F93CF93DF9370
:10048000CDB7DEB7A1970FB6F894DEBF0FBECDBFD4
:1004900019A2423008F44AE08E010F5D1F4F842EEE
:1004A000912CA12CB12CA50194010E949E04E62F51
:1004B000B901CA0101501109EA3014F4E05D01C02C
:1004C000E95CD801EC93232B242B252B61F7011534
:1004D000110571F0F80101900020E9F73197AF01A3
:1004E000401B510BB80185E291E00E94870002C0D9
:1004F00080E090E0A1960FB6F894DEBF0FBECDBFAE
:10050000DF91CF911F910F91BF90AF909F908F90EF
:1005100008950E94C6041F920F920FB60F921124E5
:100520002F933F934F935F936F937F938F939F93FB
:10053000AF93BF93EF93FF9385E291E00E94EA00AF
:10054000FF91EF91BF91AF919F918F917F916F91AB
:100550005F914F913F912F910F900FBE0F901F9081
:1005600018951F920F920FB60F9211242F938F930D
:100570009F93EF93FF93E0913501F09136018081D5
:10058000E0913B01F0913C0182FD12C0908180918D
:100590003E018F5F8F7320913F01821751F0E091F0
:1005A0003E01F0E0EB5DFE4F958F80933E0101C070
:1005B0008081FF91EF919F918F912F910F900FBEAE
:1005C0000F901F9018951F920F920FB60F92112443
:1005D0002F933F938F939F93AF93BF9380911B0172
:1005E00090911C01A0911D01B0911E0130911A0142
:1005F00023E0230F2D3720F40196A11DB11D05C066
:1006000026E8230F0296A11DB11D20931A018093A5
:100610001B0190931C01A0931D01B0931E018091BA
:100620001F0190912001A0912101B091220101961A
:10063000A11DB11D80931F0190932001A093210162
:10064000B0932201BF91AF919F918F913F912F91D4
:100650000F900FBE0F901F9018951F920F920FB61C
:100660000F9211242F933F934F935F936F937F9338
:100670008F939F93AF93BF93EF93FF938091190153
:10068000882341F08091180191E0980F9093180110
:10069000882339F0809118018830B8F01092180141
:1006A00014C060E08AE00E94A70160E08CE00E9434
:1006B000A7011092190180911601909117010196DE
:1006C0009093170180931601E5CFFF91EF91BF91B1
:1006D000AF919F918F917F916F915F914F913F91DA
:1006E0002F910F900FBE0F901F901895CF93DF930F
:1006F000E5E2F1E01382128288EE93E0A0E0B0E040
:1007000084839583A683B78384E091E0918380837B
:1007100085EC90E09587848784EC90E097878687C6
:1007200080EC90E0918B808B81EC90E0938B828BBE
:1007300082EC90E0958B848B86EC90E0978B868B97
:10074000118E128E138E148E82E08093C401C2EC3F
:10075000D1E083E0888384E0898361E00E94D7014F
:1007600061E08881DF91CF910C94D701789484B5B2
:10077000826084BD84B5816084BD85B5826085BD9D
:1007800085B5816085BD80916E00816080936E002B
:10079000109281008091810082608093810080911D
:1007A00081008160809381008091800081608093CE
:1007B00080008091B10084608093B1008091B0008E
:1007C00081608093B00080917A00846080937A0089
:1007D00080917A00826080937A0080917A008160B3
:1007E00080937A0080917A00806880937A001092DA
:1007F000C100E0913501F091360182E08083E09103
:100800003101F09132011082E0913301F091340115
:100810008FEC808310923D01E0913901F0913A0113
:1008200086E08083E0913701F0913801808180611A
:100830008083E0913701F091380180818860808366
:10084000E0913701F0913801808180688083E091E8
:100850003701F091380180818F7D808361E089E0EC
:100860000E94D70160E08EE00E94D701C0E4C093EF
:100870007C0080917A00806480937A0080917A0075
:1008800086FDFCCF809178002091790090E0922B3A
:1008900090932401809323016C01092E000CEE0833
:1008A000FF0897FF14C0E0912501F0912601019007
:1008B000F081E02D6DE285E291E0099566277727CA
:1008C000CB016C197D098E099F094AE003C04AE0FB
:1008D000C701B6010E94380242E050E060E171E0D9
:1008E00085E291E00E9487000E9413024B015C01A7
:1008F00084EFC82EDD24D394E12CF12C0E94130246
:10090000DC01CB0188199909AA09BB09883E9340EB
:10091000A105B10558F021E0C21AD108E108F1089B
:1009200088EE880E83E0981EA11CB11CC114D1046E
:10093000E104F10419F70E94740199CFA1E21A2E83
:10094000AA1BBB1BFD010DC0AA1FBB1FEE1FFF1F73
:10095000A217B307E407F50720F0A21BB30BE40BC3
:10096000F50B661F771F881F991F1A9469F760950A
:100970007095809590959B01AC01BD01CF010895C4
:10098000EE0FFF1F0590F491E02D099481E090E0B7
:0A099000F8940C94CB04F894FFCF08
:10099A00000000000B018700D400B200C60052011B
:0409AA000D0A000032
:00000001FF
