:100000000C947A000C94A2000C94A2000C94A20010
:100010000C94A2000C94A2000C94A2000C94A200D8
:100020000C94A2000C94E20F0C94A2000C94990F73
:100030000C94A2000C94A2000C94A2000C94A200B8
:100040000C94D0180C94A2000C94C3170C949D1718
:100050000C94A2000C94A2000C94A2000C94A20098
:100060000C94A2000C94A200921399139F13A51351
:10007000AD13B313BC13C313CC13D313DC13E313AB
:10008000EC13441451147C3C3E5E2B3D3F2F5B5DD2
:100090003B2C2A225C0000000000230026002900DF
:1000A00000000000240027002A00000000002500B6
:1000B00028002B00040404040404040402020202C5
:1000C000020203030303030301020408102040801B
:1000D000010204081020010204081020000000089A
:1000E00000020100000304070000000000000000FF
:1000F000241AD21911241FBECFEFD8E0DEBFCDBF26
:1001000013E0A0E0B1E0ECE0FEE302C005900D9248
:10011000AC39B107D9F726E0ACE9B3E001C01D92D4
:10012000AC3FB207E1F710E0C9E7D0E004C0219787
:10013000FE010E945C1CC837D107C9F70E94731BDF
:100140000C94F91E0C940000DC015996ED91FC9181
:100150005A973097B9F083899489A589B6894285E1
:10016000538564857585841B950BA60BB70B81158C
:1001700020E89207A105B10538F08FEF9FE7A0E0D6
:10018000B0E0089580E090E00895CF93DF931F9250
:10019000CDB7DEB76983DC01ED91FC910280F3817C
:1001A000E02D41E050E0BE016F5F7F4F09950F9059
:1001B000DF91CF9108958FB7F89480919D038FBF01
:1001C000089561E0FC0184810E941E1880919C03C7
:1001D000811110929C0308958EBD00000DB407FE9E
:1001E000FDCF8EB508958FEF0C94EC000F931F9305
:1001F000CF93DF93EB010E94C4188B010E94F300A0
:100200008F3F49F00E94C418601B710B6C177D076B
:10021000A8F380E001C081E0DF91CF911F910F91A1
:100220000895CF93DF93EC018E81882389F08F812D
:1002300098859C012F5F3F4F38872F8382309240F3
:1002400018F40E94F300F3CFCE010E94E1001E8259
:10025000DF91CF9108958CBD9DBD0895CF93DF931D
:10026000EC0180919C03811109C081E080939C0383
:100270008091AE059091AF050E942B0160E08C81CA
:10028000DF91CF910C941E18CF92DF92FF920F93C3
:100290001F93CF93DF9300D000D0CDB7DEB76C01B2
:1002A000F62E29833A834B835C830E941101C60199
:1002B0000E942E016CE271E0C6010E94F6008F2DB3
:1002C00080640E94EC0008E110E05C814B813A817F
:1002D0002981DA01C901002E04C0B695A79597952A
:1002E00087950A94D2F729833A834B835C830E94D3
:1002F000EC000850110929813A814B815C81083F4B
:100300008FEF180731F7FF2029F0E8E0FE1204C054
:1003100087E803C085E901C08FEF0E94EC0010E080
:100320000E94F300F601828787FF04C01F3F11F08F
:100330001F5FF6CF0F900F900F900F90DF91CF912E
:100340001F910F91FF90DF90CF900895AF92BF92D1
:10035000CF92DF92EF92FF920F931F93CF93DF9391
:10036000EC016901C801820F931F8130924008F0AF
:1003700070C08E81882371F088819981AA81BB81A8
:10038000481759076A077B0729F48F819885C81693
:10039000D906B0F5488359836A837B838B85833084
:1003A00039F089E0440F551F661F771F8A95D1F7F2
:1003B0009A01AB0161E1CE010E944401882319F04A
:1003C00083E08D8346C00E94C4185B010E94F30045
:1003D0008A878F3F49F40E94C4186A197B096D32DD
:1003E0007140A0F38FE003C08E3F31F08DE08D832C
:1003F000CE010E94E1002DC018861F8281E08E830D
:100400008F8198858C159D0540F40E94F3008F81A3
:100410009885019698878F83F3CF6701E00EF11ED0
:10042000CE14DF0431F00E94F300F60181936F01D6
:10043000F7CF8F819885080F191F18870F8389853B
:10044000882319F00115124048F0CE010E941101D5
:1004500005C0CE010E94E10080E001C081E0DF9193
:10046000CF911F910F91FF90EF90DF90CF90BF90B1
:10047000AF900895EF92FF920F931F93CF93DF9366
:10048000EC017901411551056105710511F482E115
:100490003CC08B85833039F089E0440F551F661FBF
:1004A000771F8A95D1F79A01AB0168E1CE010E94CE
:1004B0004401882311F084E028C08EEF0E94EC00F4
:1004C00087018EEFF81AF80181918F010E94EC00EC
:1004D0000E151F05C1F78FEF0E94EC008FEF0E94F1
:1004E000EC000E94F3008A878F71853031F081E142
:1004F0008D83CE010E94E10009C068E572E0CE0163
:100500000E94F600811107C085E18D83CE010E9413
:10051000E10080E013C020E030E0A9016DE0CE01F1
:100520000E944401811104C00E94F300882311F04D
:1005300084E1EBCFCE010E94E10081E0DF91CF9119
:100540001F910F91FF90EF90089580919E03882353
:10055000A9F1409100015091010160910201709157
:1005600003012CEA33E08091AC059091AD050E9427
:100570003A02811102C080E0089540919F0350919A
:10058000A0036091A1037091A2034115510561057B
:10059000710591F02CEA33E08091AC059091AD05A6
:1005A0000E943A02882339F310929F031092A0030D
:1005B0001092A1031092A20310929E0381E008956D
:1005C0008F929F92AF92BF92EF92FF920F931F93E1
:1005D000CF934B015C01C42F8091000190910101E8
:1005E000A0910201B091030188159905AA05BB05E8
:1005F00001F10E94A502811102C080E020C08CEAB6
:10060000E82E83E0F82E00E012E020E030E0B501B3
:10061000A4018091AC059091AD050E94A6018823AC
:1006200061F38092000190920101A0920201B092C8
:10063000030180919E03C82BC0939E0381E0CF915C
:100640001F910F91FF90EF90BF90AF909F908F9070
:1006500008958F929F92AF92BF92CF92DF92EF92C6
:10066000FF920F931F93CF93DF93FC0181859285B7
:10067000A385B4850196A11DB11D84179507A60712
:10068000B70710F480E05CC083899489A589B68996
:10069000C789C03129F4852E962EA72EBB2409C008
:1006A0004A015B01C7E0B694A79497948794CA95D2
:1006B000D1F7E9016A017B018F01BC01CD01680D11
:1006C000791D8A1D9B1D8090000190900101A090D2
:1006D0000201B0900301681579058A059B0599F41C
:1006E000F80187898031A9F4B701A601552766274B
:1006F0007727440F551FFA01E455FC4F8081918103
:10070000A0E0B0E018C040E00E94E0028111E8CF14
:10071000B9CFB701A6014F77552766277727440F32
:10072000551F440F551FFA01E455FC4F80819181FC
:10073000A281B381BF7088839983AA83BB8381E040
:10074000DF91CF911F910F91FF90EF90DF90CF90AD
:10075000BF90AF909F908F9008954F925F926F924D
:100760007F92AF92BF92CF92DF92EF92FF920F9360
:100770001F93CF93DF9300D000D0CDB7DEB78C01AD
:1007800049835A836B837C835901C12CD12C760118
:10079000412C82E0582E612C712C49815A816B8149
:1007A0007C819E012F5F3F4FC8010E94290388234F
:1007B00051F1D301C201F801058404C0880F991FCB
:1007C000AA1FBB1F0A94D2F7C80ED91EEA1EFB1E31
:1007D00049815A816B817C818789803129F088EF3A
:1007E0009FEFAFEFBFE004C088EF9FEFA0E0B0E065
:1007F000481759076A077B0780F2F501C082D1824A
:10080000E282F38281E00F900F900F900F90DF91C2
:10081000CF911F910F91FF90EF90DF90CF90BF90FD
:10082000AF907F906F905F904F9008958F929F92BE
:10083000AF92BF92CF92DF92EF92FF920F931F93EE
:10084000CF93DF93EC018D81811102C080E077C0EE
:100850000B891C892D893E89041715072607370740
:10086000A8F36A017B01823029F4CA86DB86EC8614
:10087000FD860DC0C114D104E104F10451F41E82BF
:100880001F82188619861A861B861C861D8681E0A3
:1008900056C08A849B84AC84BD84EB8DFC8D2585F9
:1008A00030E0275F3F4FB501A40141505109610974
:1008B0007109022E04C076956795579547950A945D
:1008C000D2F7D701C6010197A109B10904C0B695B5
:1008D000A795979587952A95D2F784179507A60728
:1008E000B70720F089288A288B2849F44F89588D2A
:1008F000698D7A8D4E835F836887798704C0841BF6
:10090000950BA60BB70B4C015D018E010A5F1F4FC3
:1009100081149104A104B10409F4A7CF4E815F8131
:100920006885798598018B8D9C8D0E94290391E0C3
:10093000891A9108A108B1088111EACF87CFDF9108
:10094000CF911F910F91FF90EF90DF90CF90BF90CC
:10095000AF909F908F9008953F924F925F926F92C9
:100960007F928F929F92AF92BF92CF92DF92EF923F
:10097000FF920F931F93CF93DF93CDB7DEB72C97E2
:100980000FB6F894DEBF0FBECDBF5C01DC015B96F5
:100990008D909C905C971696CD90DD90ED90FC909C
:1009A0001997C114D104E104F10439F0BFEFCB1A57
:1009B000DB0AEB0AFB0A312C07C0F401C080D180AE
:1009C000E280F38033243394F40181859285A385FA
:1009D000B4859C01AD012F5F3F4F4F4F5F4F29877B
:1009E0003A874B875C87260137011D821E821F8252
:1009F0001886F40181859285A385B4852D813E8179
:100A00004F815885281739074A075B0708F063C0EC
:100A100089859A85AB85BC858C159D05AE05BF057E
:100A200050F482E0C82ED12CE12CF12C92E0492E1A
:100A3000512C612C712C9E012F5F3F4FB701A601F5
:100A4000C4010E942903882309F445C089819A8141
:100A5000AB81BC81892B8A2B8B2B41F0260137017E
:100A60009FEF491A590A690A790A05C0C414D504C6
:100A7000E604F70491F02D813E814F8158852F5F68
:100A80003F4F4F4F5F4F2D833E834F8358873FEF3C
:100A9000C31AD30AE30AF30AACCF0FEF1FEF2FEF0D
:100AA0003FE0B301A201C4010E942210882399F003
:100AB000D50116964D915D916D917C9119974115D7
:100AC00051056105710549F093018201C4010E943D
:100AD0002210811102C080E02AC0D50116964D92E5
:100AE0005D926D927C921997332051F0D301C2012F
:100AF0000196A11DB11DF40180839183A283B3836C
:100B0000F5018789908DA18DB28D892B8A2B8B2B36
:100B100069F4D50157964D925D926D927C925A97E9
:100B200014968C911497806814968C9381E02C967F
:100B30000FB6F894DEBF0FBECDBFDF91CF911F91EE
:100B40000F91FF90EF90DF90CF90BF90AF909F906C
:100B50008F907F906F905F904F903F9008952F926D
:100B60003F924F925F926F927F928F929F92AF923D
:100B7000BF92CF92DF92EF92FF920F931F93CF938A
:100B8000DF9300D0CDB7DEB7FC018581882309F45F
:100B9000D9C0848180FFD6C021E02A83438954894B
:100BA0006589768982859385A485B5854817590717
:100BB0006A077B0709F41A826F013A81832F90E05C
:100BC000DE0111964D013F01B6E06B0E711C892BC1
:100BD00009F47DC0D6011A964D915D916D917C917D
:100BE0001D975A01B1E0BB22F60125811A012B01A4
:100BF00089E056944794379427948A95D1F7838D4A
:100C0000948D223061F4FC01828D938DA48DB58D7D
:100C1000BC01CD01620D731D841D951D45C0DC0115
:100C200014961C9111501221A114B104D1F4111188
:100C300018C0452B462B472B51F4F6018789908D20
:100C4000A18DB28D86839783A087B1870AC0468124
:100C500057816085718593010E942903882309F4D7
:100C600071C0F601238D348D86819781A085B18571
:100C70000297A109B109AC01BD01F901058404C0C5
:100C8000440F551F661F771F0A94D2F786859785F4
:100C9000A089B189840F951FA61FB71FBC01CD0184
:100CA000610F711D811D911DD60114962C9126FF97
:100CB00014C00091000110910101209102013091B6
:100CC0000301601771078207930751F506C0FA8187
:100CD000FF23C1F1898190E037C040E00E94E0022B
:100CE000882381F1F501E455FC4FD401CF01019631
:100CF000E817F90719F021912D93FACFEFEF8E1A2B
:100D00009E0AF60182859385A485B5850196A11D6D
:100D1000B11D82879387A487B58780E090E057CF85
:100D2000740101E010E09501AB01BC018091AC05BC
:100D30009091AD050E94A601882321F0BFEF8B1A88
:100D40009B0ADFCF8FEF9FEF0F900F90DF91CF9136
:100D50001F910F91FF90EF90DF90CF90BF90AF90D9
:100D60009F908F907F906F905F904F903F902F90CB
:100D70000895FC01818D928D009711F00C94AF05C0
:100D80008FEF9FEF08950F931F93CF93DF93FC0195
:100D9000818D928D0097B9F0EF010E94AF058C0113
:100DA0000F3F8FEF180791F0898D9A8DFC014285D6
:100DB00053856485758541505109610971090E9407
:100DC0001604C80105C080E090E002C08FEF9FEFDD
:100DD000DF91CF911F910F910895CF93DF93EC0195
:100DE0008D818823A1F18C8187FF2DC06E857F8541
:100DF0008889998941E00E94E002882341F1EA89CB
:100E000080E2E89FF0011124DF01A455BC4F109748
:100E1000F1F08D81823050F44B895C896D897E8937
:100E20005C964D935D936D937C935F978F89988DBE
:100E3000A98DBA8DE455FC4F938F828FB58BA48B0F
:100E40008C818F778C83DF91CF910C94A50280E009
:100E5000DF91CF9108958F929F92AF92BF92CF92E0
:100E6000DF92EF92FF920F931F93CF93DF9300D007
:100E700000D0CDB7DEB77C0180E2689F600111240D
:100E8000960124553C4FD9011B969C91917121F0FC
:100E9000842F827409F097C0142FF701628B809120
:100EA000000190910101A0910201B0910301868798
:100EB0009787A08BB18BF601E455FC4F4489558987
:100EC00060E070E0BA0155274427D70157964D934B
:100ED0005D936D937C935A97828D938DA0E0B0E0E3
:100EE000482B592B6A2B7B2BD70157964D935D933B
:100EF0006D937C935A97D9011B968C91887159F404
:100F0000848D958DA68DB78DF701838B948BA58BE2
:100F1000B68B81E012C0803109F055C097012D5E7B
:100F20003F4FD7015B968D919C915C970E94AD03DA
:100F3000882309F448C084E0F7018583812F8F70EE
:100F4000D70114968C931497F70116821782108696
:100F500011861A961D921D921D921C921D9716FFC6
:100F600034C015968C91813071F511FF2CC0F701BA
:100F70004389548965897689452B462B472B09F48B
:100F800061C040E050E0BA01C7010E941604882306
:100F9000D1F0F7018788908CA18CB28CC38CD48C53
:100FA00082E090E0A0E0B0E0F60180839183A2832C
:100FB000B3839E012F5F3F4FB501A401C6010E947C
:100FC0002903811104C080E03DC081E03BC000E006
:100FD00010E09801B501A401C6010E9422108823E7
:100FE00091F389809A80AB80BC80D60157968C9112
:100FF000803129F088EF9FEFAFEFBFE004C088EFAA
:101000009FEFA0E0B0E088169906AA06BB0688F21A
:10101000D70157961D921D921D921C925A97F70167
:10102000138A148A158A168A848180688483C7018A
:101030000E94ED06882339F240E050E0BA01C70172
:101040000E9416040F900F900F900F90DF91CF9198
:101050001F910F91FF90EF90DF90CF90BF90AF90D6
:101060009F908F9008954F925F926F927F92AF9270
:10107000BF92CF92DF92EF92FF920F931F93CF9385
:10108000DF93CDB7DEB72B970FB6F894DEBF0FBE58
:10109000CDBF7C01CE0101966C01FC0190E28BE09A
:1010A0008C0D91938E13FDCFDA0130E047E09D91D6
:1010B000992339F19E3219F0E6E8F0E00AC04A308F
:1010C00009F472C138E04AE0F2CF3196891709F489
:1010D0006BC184918111F9CF431708F465C18FED7D
:1010E000890F8E3508F060C181E0830FF601E30FB0
:1010F000F11D3FE9390F3A3108F490529083382FAF
:10110000D6CF8981803209F44FC1B22E8B01DB0129
:101110005B968D919C915C97F701948F838F1696C7
:101120001D921D921D921C921997FB011286138627
:1011300014861586712CF80182859385A485B58562
:10114000438954896589768984179507A607B70767
:1011500008F061C025E0B695A795979587952A95E3
:10116000D1F7F82FFF706F2ED80115968C91823031
:1011700008F41AC1C8010E94AF0597FD15C1F80116
:1011800082859385A485B5854F96A11DB11D828763
:101190009387A487B587F0E26F9EC0011124BC013C
:1011A00064557C4F6115710509F4FEC0DB012C917B
:1011B000222319F0253EC1F427C071100EC0F7019B
:1011C000628A409100015091010160910201709189
:1011D000030146875787608B718BFC01E455FC4FF8
:1011E0008081811113C015C04BE050E0C6010E9400
:1011F000351E892B09F09FCF8B2D8073803309F426
:10120000D3C04B2D662DCCC07720C9F277247394C0
:1012100092CF772473948B2D8271823109F0C4C0F0
:101220007720D1F0D7011E966D917D918D919C9183
:10123000519741E00E94E002882309F4B5C0F7010C
:101240006289F0E26F9FB001112464557C4F6115F3
:10125000710509F079C0A8C0D80115968C9182302B
:1012600009F4A2C0C8010E94AC04882309F49CC000
:10127000D8015B96ED91FC915C9716964D905D9030
:101280006D907C901997B2E04B1A51086108710873
:10129000058404C0440C551C661C771C0A94D2F7C4
:1012A00086859785A089B189480E591E6A1E7B1EC6
:1012B000A480E1E04E1A510861087108AA2009F1E2
:1012C0000E94A502882309F46FC0ECEAF3E01192B2
:1012D00025E0EC3AF207D9F7D301C2018A0D911D3E
:1012E000A11DB11D8093000190930101A093020103
:1012F000B093030180919E03816080939E03AA9422
:10130000DDCFD8015B96ED91FC915C9780E092E097
:10131000A0E0B0E0058404C0880F991FAA1FBB1F7E
:101320000A94D2F7F8014389548965897689840F34
:10133000951FA61FB71F838B948BA58BB68BD701E8
:1013400052961C926CEA73E080E2FB0111928A953E
:10135000E9F78BE0F601DB0101900D928A95E1F748
:1013600081E298E2DB0151969C938E93509720E0A6
:1013700038E01F963C932E931E9753969C938E9322
:10138000529759969C938E93589757963C932E93C9
:1013900056970E94A502882339F04B2DF7016289E8
:1013A000C7010E942B0701C080E02B960FB6F8946E
:1013B000DEBF0FBECDBFDF91CF911F910F91FF9088
:1013C000EF90DF90CF90BF90AF907F906F905F9045
:1013D0004F900895CF93DF93EC010E94ED06882390
:1013E00011F01D8281E0DF91CF910895FC01818D84
:1013F000928D009711F00C94ED0608952F923F9274
:101400004F925F926F927F928F929F92AF92BF9214
:10141000CF92DF92EF92FF920F931F93CF93DF93C0
:1014200000D000D0CDB7DEB78C015B011A01DC0122
:1014300015968C9115978130C9F414968C9181FF83
:1014400015C082FF1BC0F8014389548965897689DC
:1014500082859385A485B58584179507A607B70768
:1014600069F0C8010E941604811108C081E090E073
:10147000F8019383828380E090E039C1610183C0E9
:10148000D8015B968D919C915C97FC012481215041
:101490002A013B0139E076946794579447943A9532
:1014A000D1F7722E74207A01F1E0FF22772009F43F
:1014B00076C080E092E08E199F0946018C159D054B
:1014C00008F44C01D8015B962D913C915C971696DF
:1014D0008D919D910D90BC91A02D0297A109B1090C
:1014E000F901058404C0880F991FAA1FBB1F0A9425
:1014F000D2F74685578560897189840F951FA61F8D
:10150000B71F9C01AD01270D311D411D511D290142
:101510003A01811432E0930609F088C080910001FD
:1015200090910101A0910201B091030184159505EC
:10153000A605B70559F48FEF9FEFDC0180930001FA
:1015400090930101A0930201B09303019501B301AF
:10155000A2018091AC059091AD050E943A028823CA
:1015600009F484CF9EEFB91AC818D908F80182850A
:101570009385A485B585880D991DA11DB11D828710
:101580009387A487B587D8011A964D915D916D9187
:101590007C911D97C114D10409F072CF87C0E1146A
:1015A000F10409F086CF16964D915D916D917C9175
:1015B0001997411551056105710559F457968D919B
:1015C0009D910D90BC91A02D0097A105B10541F50D
:1015D00021C09E012F5F3F4F0E942903882309F4F9
:1015E0004BCF89819A81AB81BC81F801238D348DE9
:1015F000F9012789203129F048EF5FEF6FEF7FE095
:1016000004C048EF5FEF60E070E084179507A6071D
:10161000B70730F0C8010E94AC0481114ACF26CF31
:10162000F80186839783A087B18743CFE114F10443
:1016300029F5D8011A964D915D916D917C911D9778
:1016400053968D919D910D90BC91A02D48175907EF
:101650006A077B0798F00E94A502882309F406CF49
:1016600040920001509201016092020170920301C8
:1016700080919E03816080939E0308C041E0C30176
:10168000B2010E94E002882309F4F0CED501F701EF
:10169000E455FC4FCF01880D991DE817F90719F0A3
:1016A0002D912193FACFA80CB91C5ECF53968D9142
:1016B0009D910D90BC91A02D84179507A607B707A3
:1016C00040F4F801438B548B658B768B8481806862
:1016D0008483D80114968C9183FD02C0C10107C098
:1016E000C8010E94ED06882309F4C0CEF7CF0F9001
:1016F0000F900F900F90DF91CF911F910F91FF905E
:10170000EF90DF90CF90BF90AF909F908F907F90A1
:101710006F905F904F903F902F900895CF93DF93FD
:101720001F92CDB7DEB7698341E050E0BE016F5F25
:101730007F4F0E94FE090F90DF91CF910895CF93C4
:10174000DF93EC01898D9A8D009739F481E090E068
:101750009B838A8380E090E00BC0FC01138212829D
:101760000E94FE09E98DFA8D22813381232B71F7C6
:10177000DF91CF910895FC01DB0112968D919C9130
:101780001397938382838EE191E0918380831496F3
:101790008C911497848315968C9115978583169652
:1017A0004D915D916D917C91199746835783608728
:1017B00071871A964D915D916D917C911D9742872D
:1017C0005387648775871E964D915D916D917C91CD
:1017D000519746875787608B718B52968C915297A1
:1017E000828B53964D915D916D917C915697438B71
:1017F000548B658B768B57964D915D916D917C9155
:101800005A97478B508F618F728F5B968D919C9109
:101810005C97948F838F0895EF92FF920F931F939D
:10182000CF93DF93EC017B018A011B821A8288EE41
:1018300093E0A0E0B0E08C839D83AE83BF838CE215
:1018400091E0998388838DE190E00E94031D9A8F37
:10185000898F009779F02DE1F701DC0101900D925D
:101860002A95E1F74CE050E0B801CE010C960E94B9
:10187000421E188EDF91CF911F910F91FF90EF9034
:101880000895FF920F931F93CF93DF93FC01C381C1
:10189000CC2309F457C08C01FAE2CF9FE001112458
:1018A000FC01F28061E08F2D0E944E18EF2DF0E0D8
:1018B000E452FF4FE491E330F9F048F4E130B9F03D
:1018C000E230A1F584B5806284BDC8BD38C0E73080
:1018D000E9F0E83019F1E43049F580918000806248
:1018E00080938000D0938B00C0938A0028C084B579
:1018F000806884BDC7BD23C08091800080688093CC
:101900008000D0938900C093880019C08091B000F6
:1019100080688093B000C093B30011C08091B00084
:1019200080628093B000C093B40009C0C038D10574
:1019300014F460E001C061E08F2D0E941E1881E068
:10194000F8018483DF91CF911F910F91FF9008954B
:101950002F923F924F925F926F927F928F929F92BF
:10196000AF92BF92CF92DF92EF92FF920F931F93AD
:10197000CF93DF93CDB7DEB7C858D1090FB6F8942F
:10198000DEBF0FBECDBF8C01962E842E1E0183E7D5
:10199000280E311CC12CD12CB22CA32CA8E5B0E010
:1019A000AC0FBD1F1C96C957DF4FB983A883C7581A
:1019B000D040482D692DF801828193810E94CC127C
:1019C000D1018D931D01B9E0CB16D10409F065C298
:1019D000F801E480F5806CE571E089EF95E00E9404
:1019E000961661E0D7018C910E944E181092BB05AB
:1019F0001092B9051092B6051092B505BAE0B093F1
:101A0000B4050E94C4187B0161E08091B4050E9476
:101A10004E1861E08091B4050E941E187FB6F894BC
:101A20008091AB03811127C0EEEBF0E08491E2EDF1
:101A3000F0E09491E82FF0E0EE0FFF1FE056FF4F2B
:101A4000A591B4918C91982321F461E08AE00E94E1
:101A50001E1861E08AE00E944E188CB580618CBD32
:101A60008CB580648CBD61E08DE00E944E1861E011
:101A70008BE00E944E188091AB038F5F8093AB0385
:101A80007FBE82E58093AE051092AF058091AE05D2
:101A90009091AF050E942B015AE0752E8FEF0E94A6
:101AA000EC007A947110FACF80EB95E00E942E0141
:101AB00020E030E0A90160E080EB95E00E94440165
:101AC000782E8093BA0581E0781649F00E94C418F8
:101AD0006E197F09613D774058F381E056C02AEACC
:101AE00031E040E050E068E080EB95E00E94440186
:101AF00082FF03C07092BB0510C044E0742E0E94A8
:101B0000F3008093BA057A947110F9CF8A3A11F0F4
:101B100082E03BC082E08093BB058091BB058230B0
:101B200021F0412C512C320105C0412C512C612C4B
:101B300030E4732E20E030E0A90167E380EB95E00C
:101B40000E944401A301920169E280EB95E00E94AA
:101B500044018093BA05882349F00E94C4186E1985
:101B60007F09613D774030F388E00FC08091BB056D
:101B7000823001F520E030E0A9016AE380EB95E0D6
:101B80000E944401882341F086E08093B50580EBF4
:101B900095E00E94E10091C00E94F300807C803CAF
:101BA00019F483E08093BB050E94F3000E94F300C8
:101BB0000E94F30080EB95E00E94E10080E58093B5
:101BC000AE051092AF0581E00E945215882329F0DE
:101BD0008091DF05882341F070C080E00E9452159B
:101BE000882309F46AC0F4CF8091D305803109F5C8
:101BF00082E08093DF051092F1051092F2051092B9
:101C0000F3051092F4058091D4059091D505A0E0DC
:101C1000B0E025E0880F991FAA1FBB1F2A95D1F7B6
:101C20008093ED059093EE05A093EF05B093F0053A
:101C30001EC0803209F041C083E08093DF054091EF
:101C4000D6055091D7056091D8057091D90540937C
:101C5000F1055093F2056093F3057093F4052DEEB2
:101C600035E08CEB95E00E94AD03882331F1ACEBBD
:101C7000B5E0B093F605A093F50581E08093DE050D
:101C80001092E0051092E1051092E2051092E30532
:101C90001092E4051092E5051092E6051092E70512
:101CA0001092E8051092E9051092EA051092EB05F2
:101CB0001092EC0564E771E002C06DE871E089EF15
:101CC00095E00E949616F801E480F5806AED75E0D3
:101CD000CE0101960E94BB0BBE016F5F7F4FCE010C
:101CE000CB960E94BB0B19A218A28EE191E09F8FA8
:101CF0008E8F1BA221968FAD2197811116C06C96F5
:101D00001FAE1EAE6C9788EE93E0A0E0B0E0A09608
:101D10008CAF9DAFAEAFBFAFA097E3961FAE1EAE28
:101D2000E397A5961FAEA59735C0825023E14BEAF5
:101D300051E0823048F46AED75E0CE014E960E9483
:101D4000330881110EC0DBCFBE01655C7F4FCE0131
:101D50004E960E943308882391F2CE01CB960E94C2
:101D6000EA0949A95AA96BA97CA9CE014E960E94FD
:101D70001604BE01625E7F4FCE0101960E94BB0B2E
:101D80004BEA51E0BE016F5F7F4FCE01885A9F4FF3
:101D90000E940C0C6C968EAD9FAD6C97D70114967B
:101DA0009C938E931397A0968CAD9DADAEADBFADB9
:101DB000A097F70185839683A783B087A4968CADFF
:101DC0009DADAEADBFADA49781879287A387B48741
:101DD0008DE0C957DF4FE881F981C758D040D7015E
:101DE0001D9601900D928A95E1F7E396EEADFFAD59
:101DF000E397D7015B96FC93EE935A97309731F0B7
:101E00008581882319F064EB71E002C06FEC71E00A
:101E100089EF95E00E949616F80184819581DC0196
:101E20005A96ED91FC915B97309789F0258122239A
:101E300071F06B2D7A2D01960E9496166AEE71E074
:101E400089EF95E00E9496166B2D7A2D02C06CEFFB
:101E500071E089EF95E00E949616F801E480F58024
:101E6000D7015A968D919C915B970097B1F0FC0138
:101E70002581222391F00E94EA09D7015A968D917B
:101E80009C915B970E94981DF701138E128E63E15F
:101E900072E089EF95E00E949616FFEFCF1ADF0AF5
:101EA00082E3C816D10409F084CD6FE172E089EFB6
:101EB00095E00E949616C857DF4F0FB6F894DEBF24
:101EC0000FBECDBFDF91CF911F910F91FF90EF908B
:101ED000DF90CF90BF90AF909F908F907F906F904A
:101EE0005F904F903F902F900895CF93DF93EC0138
:101EF00081E08C8361E089810E941E1860E0888106
:101F00000E941E18CE01DF91CF910C94410CCF930B
:101F1000DF93EC0181E08C8361E088810E941E18D0
:101F200060E089810E941E18CE01DF91CF910C9450
:101F3000410C1F920F920FB60F9211242F933F93D3
:101F40004F935F936F937F938F939F93AF93BF93C1
:101F5000EF93FF938091AA03882341F08091A90316
:101F600091E0980F9093A903882339F08091A903F9
:101F70008830B8F01092A90314C060E08AE00E9493
:101F80001E1860E08CE00E941E181092AA03809137
:101F9000A7039091A80301969093A8038093A703A9
:101FA000E5CFFF91EF91BF91AF919F918F917F917D
:101FB0006F915F914F913F912F910F900FBE0F90B6
:101FC0001F9018951F920F920FB60F9211248F93A6
:101FD0009F938091A4038F5F8093A4038091A403B7
:101FE0009091A303811105C08091A3031092B200C8
:101FF00022C08091A4039091A3038823E1F08091F3
:10200000A3038091A3038F5F8093A3031092A40383
:102010001092B2008091A303882339F08091A3032A
:10202000893018F48091A30306C08091A3038930FE
:1020300010F01092A3039F918F910F900FBE0F90FD
:102040001F9018954F925F926F927F928F929F92FE
:10205000AF92BF92CF92DF92EF92FF920F931F93B6
:10206000CF93DF93EC016A017B01280139014230F3
:1020700051056105710510F480E073C089859A856A
:10208000AB85BC850196A11DB11D84179507A607D8
:10209000B70790F38B889C88AD88BE888F89803184
:1020A00029F4BB27AF2D9E2D8D2D09C0DB01CA0160
:1020B00047E0B695A795979587954A95D1F7880EED
:1020C000991EAA1EBB1E8091000190910101A09152
:1020D0000201B091030188169906AA06BB0679F49D
:1020E0008F898031A1F4DD24EE24FF24C601880FFE
:1020F000991FFC01E455FC4F5182408219C040E019
:10210000C501B4010E94E0028111EACFB5CFE89485
:10211000C7F8DD24EE24FF24C601880F991F880F1D
:10212000991FFC01E455FC4F408251826282738208
:1021300080919E03816080939E038A89823080F023
:102140008D819E81AF81B885880E991EAA1EBB1E07
:1021500080929F039092A003A092A103B092A20349
:1021600081E0DF91CF911F910F91FF90EF90DF9071
:10217000CF90BF90AF909F908F907F906F905F9027
:102180004F900895CF92DF92EF92FF920F931F939B
:10219000CF93DF93CDB7DEB7A1970FB6F894DEBF2C
:1021A0000FBECDBF8C01FC01648368E272E089EF51
:1021B00095E00E9481166BE272E089EF95E00E9443
:1021C0008116F801248130E040E050E019A28E0130
:1021D0000F5D1F4F8AE0C82ED12CE12CF12CCA01D3
:1021E000B901A70196010E943A1C605DF801629353
:1021F0008F01211531054105510589F7BF0189EF8F
:1022000095E00E94811668E272E089EF95E00E94F5
:10221000811662E370E080E090E00E948A18A19647
:102220000FB6F894DEBF0FBECDBFDF91CF911F91E7
:102230000F91FF90EF90DF90CF9008951F93CF9371
:10224000DF93EC0160E088810E941E1860E08981C4
:102250000E941E181A8161E0812F0E944E1860E0D2
:10226000812F0E941E181C821B82DF91CF911F912B
:102270000895CF93DF93EC01888199810E941E110C
:102280008A819B81DF91CF910C941E11CF93DF93B4
:10229000DC0112968D919C9113974D3409F0A7C0E3
:1022A000653309F45EC08CF4623309F44DC02CF43C
:1022B000613309F093C061E048C0633309F44FC053
:1022C000643309F08BC064E040C0663409F44DC04B
:1022D000ECF4663309F447C0623409F07FC0FC01B6
:1022E00024810280F381E02DA081B18113962C938B
:1022F0000280F381E02D2383DC011296CD91DC91E5
:102300001397888199810E94750F5FC0DC01129636
:10231000ED91FC9113976C3409F442C0623509F0D9
:102320005DC0DC0114962C91A081B18113962C9391
:102330000280F381E02D2383FC01C281D381888157
:1023400099810E94870F41C062E00E94C21062E33F
:1023500070E080E090E0DF91CF910C948A1863E008
:10236000F4CF65E0F2CF66E0F0CFFC01248102807B
:10237000F381E02DA081B18113962C930280F3812B
:10238000E02D2383DC011296CD91DC911397888197
:1023900099810E94870F8A819B810E94870F19C0B3
:1023A000DC0114962C91A081B18113962C930280AC
:1023B000F381E02D2383FC01C281D3818A819B813B
:1023C0000E94870F8881998102C08A819B810E9427
:1023D000750F68EC70E080E090E0BDCFDC011296F4
:1023E0008D919C911397DF91CF910C943911DF91CE
:1023F000CF9108950F931F93CF93DF93EC01E88162
:10240000F981A081B18186E013968C930280F381DB
:10241000E02D838308811981F801808191810E94D8
:10242000870FF801828193810E94750F6AEF70E037
:1024300080E090E00E948A1888819981DF91CF9195
:102440001F910F910C9439110F931F93CF93DF932A
:10245000EC01E881F981A081B18186E013968C932B
:102460000280F381E02D838308811981F801808146
:1024700091810E94870FF801828193810E94750FDC
:1024800066E970E080E090E00E948A188881998176
:10249000DF91CF911F910F910C9439110F931F93DE
:1024A000CF93DF93EC01E881F981A081B18186E0CF
:1024B00013968C930280F381E02D83830881198128
:1024C000F801828193810E94870FF80180819181B8
:1024D0000E94750F64E071E080E090E00E948A182D
:1024E00088819981DF91CF911F910F910C943911BF
:1024F0000F931F93CF93DF93EC01E881F981A081C3
:10250000B18186E013968C930280F381E02D838362
:1025100008811981F801828193810E94870FF80157
:10252000808191810E94750F6BE970E080E090E0FE
:102530000E948A1888819981DF91CF911F910F9114
:102540000C9439110F931F93CF93DF93EC01E88123
:10255000F981A081B18183E013968C930280F3818D
:10256000E02D838308811981F801808191810E9487
:10257000870FF801828193810E94870F6AEF70E0D4
:1025800080E090E00E948A1888819981DF91CF9144
:102590001F910F910C9439117F928F929F92AF925D
:1025A000BF92CF92DF92EF92FF920F931F93CF9340
:1025B000DF937C01DC010D911C91F801838188235C
:1025C00021F00190F081E02D02C0E0E0F0E0808198
:1025D00091810E941A194C01782ED80113968C9182
:1025E0001397823020F0ED91FC91329602C0E0E02A
:1025F000F0E0808191810E941A195C01F8018381C9
:10260000833028F00190F081E02D349602C0E0E0A4
:10261000F0E0808191810E941A196C01D801139613
:102620008C911397843020F0ED91FC91369602C086
:10263000E0E0F0E0808191810E941A19772009F48E
:1026400051C0AA2009F44EC0CC2009F44BC0882305
:1026500009F448C09924BB24DD248C011127BAE178
:102660008B1691040CF447C0EAE1AE16B1040CF4E9
:1026700020C1FAE1CF16D1045CF00A3111050CF447
:1026800045C161E372E089EF95E00E9496163EC174
:10269000C0E0D0E089E1C816D104B4F40A311105D4
:1026A00044F06BE572E089EF95E00E949616C2E077
:1026B000D0E00931110544F460E772E089EF95E05C
:1026C0000E949616C3E0D0E0E9E1AE16B10454F4DE
:1026D000AAE1CA16D1040CF0EFC0B9E1CB16D104BF
:1026E0000CF4F6C0FE013197EF30F105A8F4EC5C74
:1026F000FF4F0C945C1CB9E18B16910409F4D6C011
:10270000EAE1AE16B1040CF06EC0C0E0D0E089E1A1
:10271000A816B1040CF4A4C0D70114968D919C9115
:10272000159703C0F701848195810E94A2128CE263
:1027300031C1D70114968D919C91159703C0F70173
:10274000848195810E947812F2CFD70114968D91E1
:102750009C9115970E944E12EACFF70184819581D2
:102760000E944E129EC0D70114968D919C91159790
:102770000E944E1287E30EC1F701848195810E9469
:102780004E1288E307C1D70114968D919C9115973D
:102790000E94241289E3FEC0F701848195810E9482
:1027A000FA1180E3F7C0D70114968D919C9115978B
:1027B0000E94A21281E3EEC0F701848195810E94FC
:1027C000A21282E3E7C0D70114968D919C911597D0
:1027D0000E94FA1183E3DEC0F701848195810E9493
:1027E000241284E3D7C0FAE1CF16D1040CF45BC005
:1027F0000A3111050CF4B1C069ED72E089EF95E082
:102800000E949616C8E0D0E00931110544F46EEE3E
:1028100072E089EF95E00E949616C9E0D0E089E168
:10282000C816D1040CF060C00A31110544F064E010
:1028300073E089EF95E00E949616CAE0D0E0093176
:1028400011050CF051C06AE173E089EF95E00E9438
:102850009616A9E1AA16B1040CF0AECFCBE0D0E0F9
:10286000BAE1CB16D1040CF045C0E9E1CE16D10493
:102870000CF038CF0A3111050CF47FC06CE573E021
:1028800089EF95E00E949616D7011496CD91DC91C0
:102890001597CE010E94FA11CE010E94FA1185E32C
:1028A00079C086E377C0C0E0D0E0B9CFC0E0D0E027
:1028B00019CFC0E0D0E008CF0A311105A4F165E8D6
:1028C00072E089EF95E00E949616C4E0D0E02BC03C
:1028D0000A311105ACF16FEA72E089EF95E00E94D0
:1028E0009616C6E0D0E02CC0F9E1AF16B1040CF4A6
:1028F000B7CFF8CE0A3111059CF160E373E089EFA0
:1029000095E00E949616CCE0D0E02AC0093111056E
:102910000CF0BECE66E472E089EF95E00E94961658
:10292000C1E0D0E0B7CE093111050CF0D6CE6AE98E
:1029300072E089EF95E00E949616C5E0D0E0CDCE1A
:10294000093111050CF0CECE64EC72E089EF95E010
:102950000E949616C7E0D0E0C5CEC0E0D0E054CFCC
:10296000093111050CF081CF66E473E089EF95E041
:102970000E949616CDE0D0E078CF0931110509F418
:10298000B1CE62E773E089EF95E00E949616CFE042
:10299000D0E0A8CEDF91CF911F910F91FF90EF90E3
:1029A000DF90CF90BF90AF909F908F907F900895D1
:1029B000DC0112968C91129713969C9113978917AC
:1029C00090F42C9111969C911197E22FF92FE80F1A
:1029D000F11DE80FF11D7183608312968C9112979F
:1029E0008F5F12968C9308951F93CF93DF93EC0122
:1029F00010E08A811817B0F48B81181748F4988179
:102A00008981E92FF82FE10FF11DE10FF11D02C0BF
:102A1000E0E0F0E080819181009711F00E94981D24
:102A20001F5FE7CF1E828C819D81009711F00E946D
:102A3000981D1A8288819981009729F0DF91CF91A2
:102A40001F910C94981DDF91CF911F910895CF9203
:102A5000DF92EF92FF920F931F93CF93DF936C015E
:102A60007A018B01C0E0D0E0CE15DF0589F0D801F6
:102A70006D918D01D601ED91FC910190F081E02DD9
:102A8000C6010995892B11F47E0102C02196ECCF75
:102A9000C701DF91CF911F910F91FF90EF90DF90D1
:102AA000CF9008958F929F92AF92BF92CF92DF9274
:102AB000EF92FF92CF93DF93C82F80EB95E0909336
:102AC000AD058093AC05CC2369F1C53010F080E0F2
:102AD0000DC140E060E070E0CB010E94E00288237D
:102AE000B1F320E1C29FC001112484569C4FFC0128
:102AF000E254FE4F20812F7751F73C96408151815F
:102B000062817381443651056105710500F3349784
:102B1000C080D180E280F380C114D104E104F104CB
:102B200021F4D5CFC12CD12C760140E0C701B601EC
:102B30000E94E002882359F28091B7039091B80374
:102B40008115924021F6A091BC03AA2309F4BFCFBE
:102B50006091BA037091BB036115710509F4B7CF99
:102B60002091B903222309F4B2CFA093CE0520937C
:102B7000C00580E030E0E1E0F0E0C82FAF01082EB2
:102B800002C0440F551F0A94E2F72417350741F09D
:102B9000982F8F5F983089F789E08093C90597CF88
:102BA0008093C9052091C2033091C30321153105DB
:102BB00019F040E050E008C02091D0033091D103DB
:102BC0004091D2035091D3032093C1053093C205A5
:102BD0004093C3055093C40546015701860E971EC6
:102BE000A11CB11C8092CF059092D005A092D10576
:102BF000B092D205E091BD03F091BE03F093D505EC
:102C0000E093D405B0E00E94DF1E860E971EA81E3A
:102C1000B91E8092D6059092D705A092D805B092A1
:102C2000D90585E0EE0FFF1F8A95E1F7E150FE4FD1
:102C3000EF2FFF27E6958E0E9F1EA11CB11C8092E0
:102C4000CA059092CB05A092CC05B092CD052091FB
:102C5000BF033091C0032115310521F0A90160E0C7
:102C600070E008C04091CC035091CD036091CE0339
:102C70007091CF03D701C60188199909AA09BB0928
:102C8000840F951FA61FB71F04C0B695A7959795EB
:102C90008795CA95D2F78093C5059093C605A093F2
:102CA000C705B093C805853F2FE09207A105B10580
:102CB00010F48CE018C0853F9F4FA105B10510F4BA
:102CC00080E111C08091D8039091D903A091DA03DB
:102CD000B091DB038093D6059093D705A093D805D8
:102CE000B093D90580E28093D30581E0DF91CF9145
:102CF000FF90EF90DF90CF90BF90AF909F908F901C
:102D000008956115710579F0FB0101900020E9F744
:102D10003197AF01461B570BDC01ED91FC9102800E
:102D2000F381E02D099480E090E008950F931F93C4
:102D3000CF93DF93EC010E9481168C0168E272E070
:102D4000CE010E948116800F911FDF91CF911F91BC
:102D50000F910895FC01918D828D981761F0828DFD
:102D6000DF01A80FB11D5D968C91928D9F5F9F73BF
:102D7000928F90E008958FEF9FEF0895FC01918D61
:102D8000828D981731F0828DE80FF11D858D90E0CE
:102D900008958FEF9FEF0895FC01918D228D892F6B
:102DA00090E0805C9F4F821B91098F739927089553
:102DB00089EF95E00E94CC1621E0892B09F420E0F0
:102DC000822F0895FC01848DDF01A80FB11DA35A45
:102DD000BF4F2C91848D90E001968F739927848F3B
:102DE000A689B7892C93A089B1898C9180648C9332
:102DF000938D848D981306C00288F389E02D80811D
:102E00008F7D80830895EF92FF920F931F93CF934E
:102E1000DF93EC0181E0888F9B8D8C8D981305C02A
:102E2000E889F989808185FD24C0F62E0B8D10E09C
:102E30000F5F1F4F0F731127E02E8C8DE8120CC00F
:102E40000FB607FCFACFE889F989808185FFF5CFB5
:102E5000CE010E94E216F1CF8B8DFE01E80FF11D2D
:102E6000E35AFF4FF0820B8FEA89FB8980818062F1
:102E700007C0EE89FF896083E889F98980818064D1
:102E8000808381E090E0DF91CF911F910F91FF90BF
:102E9000EF900895CF93DF93EC01888D8823C9F0DC
:102EA000EA89FB89808185FD05C0A889B9898C9153
:102EB00086FD0FC00FB607FCF5CF808185FFF2CFEE
:102EC000A889B9898C9185FFEDCFCE010E94E216C9
:102ED000E7CFDF91CF91089580E090E0892B29F032
:102EE0000E94D81681110C94000008953FB7F89401
:102EF0008091F4069091F506A091F606B091F70640
:102F000026B5A89B05C02F3F19F00196A11DB11D44
:102F10003FBFBA2FA92F982F8827820F911DA11D7F
:102F2000B11DBC01CD0142E0660F771F881F991FBC
:102F30004A95D1F708950E94301E1F920F920FB646
:102F40000F9211242F933F934F935F936F937F932F
:102F50008F939F93AF93BF93EF93FF9389EF95E088
:102F60000E94E216FF91EF91BF91AF919F918F91D7
:102F70007F916F915F914F913F912F910F900FBE75
:102F80000F901F9018951F920F920FB60F92112459
:102F90002F938F939F93EF93FF93E0910906F09106
:102FA0000A068081E0910F06F091100682FD12C0A2
:102FB0009081809112068F5F8F7320911306821784
:102FC00051F0E0911206F0E0E750FA4F958F8093B0
:102FD000120601C08081FF91EF919F918F912F91F7
:102FE0000F900FBE0F901F901895833081F028F43A
:102FF000813099F08230A1F008958730A9F08830AF
:10300000B9F08430D1F4809180008F7D03C080912D
:1030100080008F7780938000089584B58F7702C0F9
:1030200084B58F7D84BD08958091B0008F7703C0F3
:103030008091B0008F7D8093B00008951F93CF934F
:10304000DF93282F30E0F901E452FF4F8491F9011A
:10305000E853FF4FD491F901EC54FF4FC491CC23B6
:10306000C9F0162F81110E94F517EC2FF0E0EE0F3A
:10307000FF1FE655FF4FA591B4918FB7F89411113A
:1030800005C09C91ED2FE095E92302C0EC91ED2B5A
:10309000EC938FBFDF91CF911F910895CF93DF9372
:1030A00090E0FC01E853FF4F2491FC01EC54FF4FEA
:1030B0008491882361F190E0880F991FFC01E0560C
:1030C000FF4FC591D491FC01E655FF4FA591B491F6
:1030D000611109C09FB7F894888120958223888365
:1030E000EC912E230BC0623061F49FB7F8943881C5
:1030F000822F809583238883EC912E2B2C939FBF66
:1031000006C08FB7F894E8812E2B28838FBFDF91FC
:10311000CF9108958F929F92AF92BF92CF92DF92FC
:10312000EF92FF926B017C010E9476174B015C01CC
:10313000C114D104E104F104F1F00E947617DC011E
:10314000CB0188199909AA09BB09883E9340A105BA
:10315000B10570F321E0C21AD108E108F10888EE48
:10316000880E83E0981EA11CB11CC114D104E10497
:10317000F10419F7DDCFFF90EF90DF90CF90BF9073
:10318000AF909F908F9008952FB7F8946091F006BC
:103190007091F1068091F2069091F3062FBF089589
:1031A0001F920F920FB60F9211242F933F938F937C
:1031B0009F93AF93BF938091F0069091F106A091F9
:1031C000F206B091F3063091EF0623E0230F2D377E
:1031D00020F40196A11DB11D05C026E8230F02961B
:1031E000A11DB11D2093EF068093F0069093F10688
:1031F000A093F206B093F3068091F4069091F50641
:10320000A091F606B091F7060196A11DB11D80931D
:10321000F4069093F506A093F606B093F706BF91D7
:10322000AF919F918F913F912F910F900FBE0F9073
:103230001F9018950F931F93CF93DF93EC0160E0DD
:1032400089810E941E188FE090E00197F1F761E0FC
:1032500089810E941E1883E290E00197F1F760E0F7
:1032600089810E941E1860E088810E944E18888122
:1032700090E0FC01E853FF4F6491FC01EC54FF4FD8
:10328000E491F0E0EE0FFF1FEA56FF4F8591949115
:1032900000E412E42FE030E0462F0E948D19611502
:1032A00071058105910539F0DC01CB010196A11D65
:1032B000B11DBF7003C080E090E0DC01BC0197FF4E
:1032C00002C06F5F7F4F75956795072E000C880BC6
:1032D000990B0E94531E2DEC3CEC48EE51E40E94E9
:1032E000621C0E94D41C6115710511F0CB0102C053
:1032F0008FEF90E0DF91CF911F910F910895CF93C1
:10330000C62FFC016083418361E0842F0E944E1828
:1033100060E08C2FCF910C944E18CF92DF92EF92F9
:10332000FF920F931F93E82FF92F05C00150110949
:103330002109310961F1908196239417B9F305C0F1
:10334000015011092109310911F19081962394133B
:10335000F7CFC12CD12CE12CF12C0AC08FEFC81A69
:10336000D80AE80AF80A0C151D052E053F0579F064
:1033700080818623841791F36C2D7D2D8E2D9F2DBA
:103380001F910F91FF90EF90DF90CF90089560E034
:1033900070E080E090E01F910F91FF90EF90DF9040
:1033A000CF900895CF93DF938091A4069091A506C6
:1033B000009711F00E94981DC091A006D091A1061F
:1033C000209769F084E591E0998388838A819B81C5
:1033D000009711F00E94981DCE010E94981DC09187
:1033E000AB06D091AC06209731F0CE010E94F414C8
:1033F000CE010E94981D8091AD069091AE06009777
:1034000011F00E94981D8091AF069091B006009730
:1034100011F00E94981D8FEC96E00E94F4148091A8
:10342000DE069091DF06009711F00E94981D8091B2
:10343000E0069091E106009721F0DF91CF910C9486
:10344000981DDF91CF9108957F928F929F92AF92B6
:10345000BF92CF92DF92EF92FF920F931F93CF9381
:10346000DF93E9EFF5E01382128288EE882E83E085
:10347000982EA12CB12C84829582A682B7828EE0F0
:1034800091E09183808385EC90E09587848784EC3C
:1034900090E09787868780EC90E0918B808B81EC21
:1034A00090E0938B828B82EC90E0958B848B86EC02
:1034B00090E0978B868B118E128E138E148EEEEA0F
:1034C000F5E080E580831182E0EBF5E0158216825D
:1034D0001186138682E090E0A0E0B0E084879587B3
:1034E000A687B78713A215A614A68EE191E093A72D
:1034F00082A717A682E090E00E94031DDC011D92C6
:103500001C929093EE068093ED0608EE16E08EE096
:10351000F80180838FE0818385E0828313821482A7
:1035200061E08EE00E944E1861E0D80111968C9106
:103530000E944E1861E0F80182810E944E18C3EE8D
:10354000D6E080E1888381E1898386E08A831B82DB
:103550001C8261E080E10E944E1861E089810E9436
:103560004E1861E08A810E944E1892EEC92E96E0B4
:10357000D92E8CE0D6018C932EEDE22E26E0F22E91
:10358000F70111830083D383C283C9EDD6E0D982CA
:10359000C882FB82EA821C8284E090E00E94031DC4
:1035A0008C0184E591E0D80111969C938E9313963B
:1035B000DC93CE93129768E873E089EF95E00E9460
:1035C00096161093D8060093D706CFECD6E01A8251
:1035D00034E0732E7B8288E090E00E94031D998383
:1035E00088831E827F8288E090E00E94031D9D8375
:1035F0008C83EDECF6E0F182E08241EBE42E46E0D4
:10360000F42E8AE0D7018C9314961C921E92139785
:1036100015968D929D92AD92BC9218978CE291E096
:1036200012969C938E9311975B961C921E925A97BA
:103630001D961C925BEAA52E56E0B52ED50111967B
:10364000DC93CE931596FC93EE93149786E090E06E
:103650000E94031DDC0186E291E011969C938E93FB
:103660001396BC92AE9212971596FC92EE92149716
:10367000B093AA06A093A906EEE9F6E08091ED06C4
:103680009091EE069183808313830283B583A48394
:10369000D782C682B186A0868EE4828743E062E04C
:1036A0008CE996E00E947F1947E064E08AE996E0A1
:1036B0000E947F1949E068E088E996E00E947F193E
:1036C00043E162E186E996E0DF91CF911F910F918E
:1036D000FF90EF90DF90CF90BF90AF909F908F9032
:1036E0007F900C947F19CF93DF93CDB7DEB72897E7
:1036F0000FB6F894DEBF0FBECDBF789484B582605C
:1037000084BD84B5816084BD85B5826085BD85B585
:10371000816085BD80916E00816080936E00109203
:10372000810080918100826080938100809181007E
:10373000816080938100809180008160809380000F
:103740008091B10084608093B1008091B00081606D
:103750008093B00080917A00846080937A00809199
:103760007A00826080937A0080917A0081608093F1
:103770007A0080917A00806880937A001092C1006C
:10378000E0910906F0910A0682E08083E091050647
:10379000F09106061082E0910706F09108068FEC82
:1037A000808310921106E0910D06F0910E0686E0DE
:1037B0008083E0910B06F0910C068081806180830C
:1037C000E0910B06F0910C06808188608083E09187
:1037D0000B06F0910C06808180688083E0910B06D7
:1037E000F0910C0680818F7D808343E062E0CE0102
:1037F00007960E947F1947E064E0CE0105960E947B
:103800007F1949E068E0CE0103960E947F1943E1E9
:1038100062E1CE0101960E947F19BE01695F7F4F70
:103820008091AB069091AC060E94D814BE016B5FEC
:103830007F4F8091AB069091AC060E94D814BE01D8
:103840006D5F7F4F8091AB069091AC060E94D814BB
:10385000BE016F5F7F4F8091AB069091AC060E94D6
:10386000D81441E361E38BEA96E00E94CC120E94F7
:103870006C17F7CFA1E21A2EAA1BBB1BFD010DC0CE
:10388000AA1FBB1FEE1FFF1FA217B307E407F50710
:1038900020F0A21BB30BE40BF50B661F771F881FEC
:1038A000991F1A9469F760957095809590959B0182
:1038B000AC01BD01CF010895EE0FFF1F0590F491FB
:1038C000E02D09940E94761C0C94A51E0E949E1E59
:1038D00058F00E94971E40F029F45F3F29F00C94A5
:1038E0008E1E51110C94D91E0C94941E0E94B61E6B
:1038F00068F39923B1F3552391F3951B550BBB271F
:10390000AA2762177307840738F09F5F5F4F220F63
:10391000331F441FAA1FA9F335D00E2E3AF0E0E85A
:1039200032D091505040E695001CCAF72BD0FE2FA4
:1039300029D0660F771F881FBB1F26173707480738
:10394000AB07B0E809F0BB0B802DBF01FF279358F0
:103950005F4F3AF09E3F510578F00C948E1E0C9408
:10396000D91E5F3FE4F3983ED4F38695779567952B
:10397000B795F7959F5FC9F7880F911D9695879525
:1039800097F90895E1E0660F771F881FBB1F621744
:1039900073078407BA0720F0621B730B840BBA0B02
:1039A000EE1F88F7E09508950E94BE1E88F09F578D
:1039B00098F0B92F9927B751B0F0E1F0660F771F53
:1039C000881F991F1AF0BA95C9F714C0B13091F049
:1039D0000E94D81EB1E008950C94D81E672F782F4E
:1039E0008827B85F39F0B93FCCF38695779567950E
:1039F000B395D9F73EF490958095709561957F4F7A
:103A00008F4F9F4F0895CF93DF938230910510F42D
:103A100082E090E0E091FA06F091FB0620E030E0D1
:103A2000C0E0D0E0309711F140815181481759072B
:103A3000C0F04817590761F482819381209719F0EB
:103A40009B838A832BC09093FB068093FA0626C043
:103A50002115310519F04217530718F49A01BE01D8
:103A6000DF01EF010280F381E02DDCCF211531056C
:103A700009F1281B390B2430310590F412968D91F1
:103A80009C9113976115710521F0FB01938382834B
:103A900004C09093FB068093FA06FD01329644C061
:103AA000FD01E20FF31F81939193225031092D9371
:103AB0003C933AC02091F8063091F906232B41F44B
:103AC00020910601309107013093F9062093F80602
:103AD00020910401309105012115310541F42DB7E4
:103AE0003EB74091080150910901241B350BE0912C
:103AF000F806F091F906E217F307A0F42E1B3F0B2E
:103B00002817390778F0AC014E5F5F4F241735074F
:103B100048F04E0F5F1F5093F9064093F8068193CB
:103B2000919302C0E0E0F0E0CF01DF91CF910895E2
:103B30000F931F93CF93DF93009709F48CC0FC0180
:103B40003297138212820091FA061091FB0601153A
:103B5000110581F420813181820F931F2091F80695
:103B60003091F9062817390779F5F093F906E093B3
:103B7000F80671C0D80140E050E0AE17BF0750F41E
:103B800012962D913C911397AD012115310509F144
:103B9000D901F3CF9D01DA013383228360817181E2
:103BA000860F971F8217930769F4EC0128813981EA
:103BB000260F371F2E5F3F4F318320838A819B81E1
:103BC00093838283452B29F4F093FB06E093FA0656
:103BD00042C01396FC93EE931297ED0149915991CF
:103BE0009E01240F351FE217F30771F48081918144
:103BF000840F951F029611969C938E9382819381D8
:103C000013969C938E931297E0E0F0E0D801129601
:103C10008D919C911397009719F0F8018C01F6CFC4
:103C20008D919C9198012E5F3F4F820F931F2091A1
:103C3000F8063091F9062817390769F4309729F406
:103C40001092FB061092FA0602C0138212821093A1
:103C5000F9060093F806DF91CF911F910F91089517
:103C600081E090E0F8940C94F91EFB01DC0104C0A3
:103C70008D910190801921F441505040C8F7881B64
:103C8000990B0895FB01DC014150504048F0019030
:103C90000D920020C9F701C01D9241505040E0F73D
:103CA0000895E89409C097FB3EF49095809570952F
:103CB00061957F4F8F4F9F4F9923A9F0F92F96E978
:103CC000BB279395F695879577956795B795F111ED
:103CD000F8CFFAF4BB0F11F460FF1BC06F5F7F4F8A
:103CE0008F4F9F4F16C0882311F096E911C077239C
:103CF00021F09EE8872F762F05C0662371F096E8A5
:103D0000862F70E060E02AF09A95660F771F881F73
:103D1000DAF7880F9695879597F9089597F99F6731
:103D200080E870E060E008959FEF80EC0895002443
:103D30000A941616170618060906089500240A9410
:103D400012161306140605060895092E0394000C96
:103D500011F4882352F0BB0F40F4BF2B11F460FF25
:103D600004C06F5F7F4F8F4F9F4F089557FD90584E
:103D7000440F551F59F05F3F71F04795880F97FB2F
:103D8000991F61F09F3F79F08795089512161306E9
:103D90001406551FF2CF4695F1DF08C01616170618
:103DA0001806991FF1CF869571056105089408954D
:103DB000E894BB2766277727CB0197F908950E94DF
:103DC000EA1EA59F900DB49F900DA49F800D911D9C
:103DD00011240895A29FB001B39FC001A39F700D4D
:103DE000811D1124911DB29F700D811D1124911D03
:103DF000089510E0C9E7D0E004C0FE010E945C1CF9
:0C3E00002196CA37D107C9F7F894FFCF0C
:103E0C00FFFFFFFF0000FC0680000000000003170E
:103E1C002715CC16AA16BE164A17000000008E0BEA
:103E2C00271500000000A80C00000000C5009F0B27
:103E3C00A400B906C306F609000000009B1727155D
:103E4C009B179B179B179B17000000009B172715B0
:103E5C00000000004611000000009B17496E6974B9
:103E6C0069616C697A696E6720534420636172647E
:103E7C002E2E2E00534420636172642069732072CD
:103E8C006561647920746F207573652E005344202E
:103E9C006361726420696E697469616C697A6174BA
:103EAC00696F6E206661696C656400746573742E4D
:103EBC007478740046696C6520637265617465641E
:103ECC00207375636365737366756C6C792E00452E
:103EDC0072726F72207768696C65206372656174A9
:103EEC00696E672066696C652E0057726974696E1D
:103EFC006720746F2066696C653A2000436F756C9F
:103F0C00646E277420777269746520746F206669FB
:103F1C006C650046696C6520636C6F736564002D7D
:103F2C002D2D2D2D2D2D2D000D0A00476561723D77
:103F3C00005B53747261746567795D2053747261B0
:103F4C007465677931005B53747261746567795D70
:103F5C0020537472617465677932005B53747261BB
:103F6C00746567795D205374726174656779330089
:103F7C005B53747261746567795D205374726174FC
:103F8C0065677934005B53747261746567795D2081
:103F9C00537472617465677935005B537472617424
:103FAC006567795D20537472617465677936005B5F
:103FBC0053747261746567795D20537472617465B2
:103FCC00677937005B53747261746567795D205350
:103FDC007472617465677938005B537472617465CF
:103FEC0067795D20537472617465677939005B532E
:103FFC00747261746567795D20537472617465675E
:10400C00793130005B53747261746567795D20534C
:10401C00747261746567793131005B5374726174C9
:10402C006567795D2053747261746567793132000C
:10403C005B53747261746567795D2053747261743B
:10404C006567793133005B53747261746567795DB0
:10405C002053747261746567793134005B537472E8
:10406C0061746567795D2053747261746567793129
:10407C0035005B53747261746567795D205374729B
:10408C0061746567793136005B4D616E75616C4D9D
:0C409C006F64655D205374617274000055
:00000001FF
