:100000000C9463000C948B000C948B000C948B006C
:100010000C948B000C948B000C948B000C948B0034
:100020000C948B000C948B000C948B000C94840328
:100030000C948B000C948B000C948B000C948B0014
:100040000C943A030C948B000C9408030C94E20279
:100050000C948B000C948B000C948B000C948B00F4
:100060000C948B000C948B000000000024002700EF
:100070002A0000000000250028002B0000000000DE
:1000800023002600290004040404040404040202DA
:100090000202020203030303030301020408102007
:1000A0004080010204081020010204081020000012
:1000B0000008000201000003040700000000000027
:1000C0000000F603480611241FBECFEFD8E0DEBFC4
:1000D000CDBF22E0A8E9B1E001C01D92AE35B20764
:1000E000E1F711E0A0E0B1E0E2E9F1E102C0059042
:1000F0000D92A839B107D9F710E0C2E6D0E004C0EC
:100100002197FE010E944E06C136D107C9F70E9411
:100110002E040C94BC080C940000CF92DF92EF9256
:10012000FF920F931F93CF93DF936C017A018B01A2
:10013000C0E0D0E0CE15DF0589F0D8016D918D01CA
:10014000D601ED91FC910190F081E02DC601099559
:10015000892B11F47E0102C02196ECCFC701DF91FB
:10016000CF911F910F91FF90EF90DF90CF90089566
:10017000FC01918D828D981761F0828DDF01A80FAF
:10018000B11D5D968C91928D9F5F9F73928F90E0D1
:1001900008958FEF9FEF0895FC01918D828D981740
:1001A00031F0828DE80FF11D858D90E008958FEF7D
:1001B0009FEF0895FC01918D228D892F90E0805C46
:1001C0009F4F821B91098F73992708958CEA91E0C4
:1001D0000E94DA0021E0892B09F420E0822F0895A3
:1001E000FC01848DDF01A80FB11DA35ABF4F2C91D4
:1001F000848D90E001968F739927848FA689B789A3
:100200002C93A089B1898C9180648C93938D848D7B
:10021000981306C00288F389E02D80818F7D80834A
:100220000895EF92FF920F931F93CF93DF93EC010A
:1002300081E0888F9B8D8C8D981305C0E889F989A2
:10024000808185FD24C0F62E0B8D10E00F5F1F4FBF
:100250000F731127E02E8C8DE8120CC00FB607FC2F
:10026000FACFE889F989808185FFF5CFCE010E9418
:10027000F000F1CF8B8DFE01E80FF11DE35AFF4F27
:10028000F0820B8FEA89FB898081806207C0EE894A
:10029000FF896083E889F98980818064808381E0B7
:1002A00090E0DF91CF911F910F91FF90EF90089513
:1002B000CF93DF93EC01888D8823C9F0EA89FB890D
:1002C000808185FD05C0A889B9898C9186FD0FC004
:1002D0000FB607FCF5CF808185FFF2CFA889B989D9
:1002E0008C9185FFEDCFCE010E94F000E7CFDF912A
:1002F000CF91089580E090E0892B29F00E94E600DC
:1003000081110C9400000895833081F028F481302D
:1003100099F08230A1F008958730A9F08830B9F0C3
:100320008430D1F4809180008F7D03C08091800063
:100330008F7780938000089584B58F7702C084B54D
:100340008F7D84BD08958091B0008F7703C0809128
:10035000B0008F7D8093B0000895CF93DF93282F56
:1003600030E0F901E255FF4F8491F901E656FF4F65
:10037000D491F901EA57FF4FC491CC2391F0811138
:100380000E948401EC2FF0E0EE0FFF1FE458FF4FB6
:10039000A591B491EC91ED2381E090E021F480E00F
:1003A00002C080E090E0DF91CF9108951F93CF933A
:1003B000DF93282F30E0F901E255FF4F8491F901D6
:1003C000E656FF4FD491F901EA57FF4FC491CC2371
:1003D000C9F0162F81110E948401EC2FF0E0EE0F7E
:1003E000FF1FEE58FF4FA591B4918FB7F8941111EC
:1003F00005C09C91ED2FE095E92302C0EC91ED2B17
:10040000EC938FBFDF91CF911F910895CF9380918F
:10041000A9018111FCCF8DE08093090186E18093D1
:100420000A01E091AA0123EA2E2730E1239FC001AF
:100430001124282730E0AE2FB0E084E0B595A795D1
:100440008A95E1F7A35ABE4F8C9180930B01EF7010
:10045000F0E0E35AFE4F808180930C01922F8827B1
:100460008964A90164E0559547956A95E1F7842769
:10047000952773E0220F331F7A95E1F782279327A0
:1004800080959095FC01A4E0F695E795AA95E1F793
:10049000EF70FF27E35AFE4F208120930D01FC01EE
:1004A000EF70FF27E35AFE4F208120930E01FC01DD
:1004B000EF2FFF27E295EF70E35AFE4F2081209344
:1004C0000F01E92FFF27EF70FF27E35AFE4F8081CE
:1004D0008093100180E18093AB011092A8011092EB
:1004E000A7011092A6016091A501C1E06C278AE0E6
:1004F0000E94D601C093A90181E0CF910895CF93C6
:10050000DF9390E0FC01E656FF4F2491FC01EA578F
:10051000FF4F8491882361F190E0880F991FFC01BF
:10052000E859FF4FC591D491FC01EE58FF4FA591BA
:10053000B491611109C09FB7F894888120958223F6
:100540008883EC912E230BC0623061F49FB7F8943E
:100550003881822F809583238883EC912E2B2C93D6
:100560009FBF06C08FB7F894E8812E2B28838FBFDA
:10057000DF91CF9108953FB7F8948091A1019091B8
:10058000A201A091A301B091A40126B5A89B05C02A
:100590002F3F19F00196A11DB11D3FBFBA2FA92F02
:1005A000982F8827820F911DA11DB11DBC01CD017F
:1005B00042E0660F771F881F991F4A95D1F708956B
:1005C0000E94B7081F920F920FB60F9211242F931B
:1005D0003F934F935F936F937F938F939F93AF93CB
:1005E000BF93EF93FF938CEA91E00E94F000FF919C
:1005F000EF91BF91AF919F918F917F916F915F919B
:100600004F913F912F910F900FBE0F901F90189513
:100610001F920F920FB60F9211242F938F939F93D7
:10062000EF93FF93E091BC01F091BD018081E091D7
:10063000C201F091C30182FD12C090818091C50179
:100640008F5F8F732091C601821751F0E091C50131
:10065000F0E0E455FE4F958F8093C50101C0808185
:10066000FF91EF919F918F912F910F900FBE0F905F
:100670001F9018951F920F920FB60F9211242F936F
:100680003F938F939F93AF93BF9380919D019091E0
:100690009E01A0919F01B091A00130919C0123E0A7
:1006A000230F2D3720F40196A11DB11D05C026E8AA
:1006B000230F0296A11DB11D20939C0180939D01E3
:1006C00090939E01A0939F01B093A0018091A101FE
:1006D0009091A201A091A301B091A4010196A11D46
:1006E000B11D8093A1019093A201A093A301B093A7
:1006F000A401BF91AF919F918F913F912F910F9046
:100700000FBE0F901F9018951F920F920FB60F9269
:1007100011242F933F934F935F936F937F938F9306
:100720009F93AF93BF93CF93DF93EF93FF9380910A
:10073000A901882319F18091A60191E0980F909367
:10074000A60181111BC0C091A8018091AB01C817FF
:10075000E0F06091A5018AE00E94D60160E08091FE
:1007600000010E94D6011092A90180919A019091F6
:100770009B01019690939B0180939A018091A60121
:10078000883008F11092A6011EC0EC2FF0E0EF5F58
:10079000FE4F90818091A701D1E0D80FD093A7019F
:1007A00061E070E001C0660F8A95EAF769238091E5
:1007B00000010E94D601D63008F31092A701CF5F46
:1007C000C093A801DBCFFF91EF91DF91CF91BF9153
:1007D000AF919F918F917F916F915F914F913F91D9
:1007E0002F910F900FBE0F901F901895ECEAF1E03B
:1007F0001382128288EE93E0A0E0B0E084839583B8
:10080000A683B78381E791E09183808385EC90E0B4
:100810009587848784EC90E09787868780EC90E0CA
:10082000918B808B81EC90E0938B828B82EC90E0BB
:10083000958B848B86EC90E0978B868B118E128E35
:10084000138E148E82E080935902E6E5F2E089E48B
:1008500092E09183808383E082830895CF93DF9336
:10086000CDB7DEB72E970FB6F894DEBF0FBECDBF63
:10087000789484B5826084BD84B5816084BD85B57B
:10088000826085BD85B5816085BD80916E00816087
:1008900080936E001092810080918100826080932D
:1008A000810080918100816080938100809180002F
:1008B0008160809380008091B10084608093B1005A
:1008C0008091B00081608093B00080917A00846054
:1008D00080937A0080917A00826080937A00809180
:1008E0007A00816080937A0080917A00806880939A
:1008F0007A001092C100E091BC01F091BD0182E04C
:100900008083E091B801F091B9011082E091BA01C1
:10091000F091BB018FEC80831092C401E091C00183
:10092000F091C10186E08083E091BE01F091BF01AA
:10093000808180618083E091BE01F091BF01808160
:1009400088608083E091BE01F091BF018081806862
:100950008083E091BE01F091BF0180818F7D808313
:1009600046E150E06DE771E08CEA91E00E948D0075
:1009700042E050E064E971E08CEA91E00E948D0071
:1009800061E0809159020E947F0280915902809318
:10099000000181E08093A5018EE0EFE4F1E0DE014B
:1009A000119601900D928A95E1F77E0123E0E20E07
:1009B000F11C11E0F701619171917F0180E090E0FD
:1009C0000E94FC069B01AC0160E074E284E79BE4BA
:1009D0000E9454069B01AC0160E070E080E89FE358
:1009E0000E9454069B01AC016FE672E183E098E33C
:1009F0000E9454060E94C6064B015C01F2E08F1A69
:100A00009108A108B1082DEF82162FEF9206A104DC
:100A1000B10408F439C11F5F173061F66230710507
:100A20008105910568F161157105E1E08E07910579
:100A300038F5112329F11092800028E020938100DD
:100A400020918100122B1093810070938900609394
:100A5000880080916F00826080936F0061E08091D8
:100A600000010E947F0260E08BE00E947F0261E053
:100A70008AE00E947F026091A5018AE00E94D6016F
:100A8000F09058020091560210915702F80110861A
:100A9000118612861386148661E08F2D0E947F02D4
:100AA00060E08F2D0E94D6010E94BB022B013C0109
:100AB000E4E18E2E912CA12CB12C0E94BB02DC0112
:100AC000CB0184199509A609B709883E9340A10571
:100AD000B10558F0F1E08F1A9108A108B10828EE8D
:100AE000420E23E0521E611C711C81149104A1046A
:100AF000B10419F761E08F2D0E94D6018BE990E0D7
:100B00000197F1F760E08F2D0E947F0271E1C72EFF
:100B100077E2D72E8F2D0E94AD01892B29F4F1E0C9
:100B2000CF1AD108B9F772C061E1C62E67E2D62E9E
:100B30008F2D0E94AD01019729F421E0C21AD1083E
:100B4000B9F764C038E2C32ED12C47E0E42E912CD3
:100B5000AA24A394B12C21E1622E27E2722E8F2DBC
:100B60000E94AD01892B29F481E0681A7108B9F758
:100B70004DC00E94BB021B012C0191E1692E97E23E
:100B8000792E8F2D0E94AD01019729F4E1E06E1AB4
:100B90007108B9F73BC00E94BB02DC01CB0182198E
:100BA0009309A409B5098997A105B10560F0F80179
:100BB000E90DF11D2085C5010E2C01C0880F0A9496
:100BC000EAF7822B8087E11004C0939487E0E82E37
:100BD00001C0EA94F1E0CF1AD10809F0BCCFF801C6
:100BE000608570E080E090E00E94FC06F801608380
:100BF000718382839383628570E080E090E00E943D
:100C0000FC06F80164837583868397838CEA91E000
:100C10000E94DA001816190664F58CEA91E00E9429
:100C2000B8008093AA018534E9F40091560210912E
:100C30005702F80164817581868197810E94C606FA
:100C40006983F80160817181828193810E94C60667
:100C50006A8342E050E0BE016F5F7F4F8CEA91E013
:100C60000E948D000E9406028091A9018111FCCF93
:100C700008C01092AA010E9406028091A901811168
:100C8000FCCF0E947A01C2CF163009F0D2CEF8CE46
:100C900080915602909157020C941F08EE0FFF1F8F
:100CA0000590F491E02D09940E9468060C94500779
:100CB0000E94490758F00E94420740F029F45F3F24
:100CC00029F00C94390751110C9484070C943F07B8
:100CD0000E94610768F39923B1F3552391F3951BA3
:100CE000550BBB27AA2762177307840738F09F5F4D
:100CF0005F4F220F331F441FAA1FA9F335D00E2EBA
:100D00003AF0E0E832D091505040E695001CCAF726
:100D10002BD0FE2F29D0660F771F881FBB1F2617E9
:100D200037074807AB07B0E809F0BB0B802DBF01C0
:100D3000FF2793585F4F3AF09E3F510578F00C948F
:100D400039070C9484075F3FE4F3983ED4F386950B
:100D500077956795B795F7959F5FC9F7880F911DB0
:100D60009695879597F90895E1E0660F771F881F9C
:100D7000BB1F621773078407BA0720F0621B730B4F
:100D8000840BBA0BEE1F88F7E09508950E94CD06FC
:100D90006894B1110C94840708950E94690788F043
:100DA0009F5798F0B92F9927B751B0F0E1F0660F2F
:100DB000771F881F991F1AF0BA95C9F714C0B13070
:100DC00091F00E948307B1E008950C948307672F88
:100DD000782F8827B85F39F0B93FCCF3869577959F
:100DE0006795B395D9F73EF4909580957095619588
:100DF0007F4F8F4F9F4F0895E89409C097FB3EF4B3
:100E000090958095709561957F4F8F4F9F4F992357
:100E1000A9F0F92F96E9BB279395F69587957795D5
:100E20006795B795F111F8CFFAF4BB0F11F460FF95
:100E30001BC06F5F7F4F8F4F9F4F16C0882311F0ED
:100E400096E911C0772321F09EE8872F762F05C001
:100E5000662371F096E8862F70E060E02AF09A959C
:100E6000660F771F881FDAF7880F9695879597F991
:100E7000089597F99F6780E870E060E008959FEF1C
:100E800080EC089500240A94161617061806090621
:100E9000089500240A9412161306140605060895F0
:100EA000092E0394000C11F4882352F0BB0F40F478
:100EB000BF2B11F460FF04C06F5F7F4F8F4F9F4FB8
:100EC000089557FD9058440F551F59F05F3F71F03A
:100ED0004795880F97FB991F61F09F3F79F08795A1
:100EE0000895121613061406551FF2CF4695F1DF2A
:100EF00008C0161617061806991FF1CF86957105BA
:100F0000610508940895E894BB2766277727CB01ED
:100F100097F90895CF93DF938230910510F482E022
:100F200090E0E0915C02F0915D0220E030E0C0E0F2
:100F3000D0E0309711F14081518148175907C0F036
:100F40004817590761F482819381209719F09B8398
:100F50008A832BC090935D0280935C0226C021158A
:100F6000310519F04217530718F49A01BE01DF0149
:100F7000EF010280F381E02DDCCF2115310509F16D
:100F8000281B390B2430310590F412968D919C91D9
:100F900013976115710521F0FB019383828304C0CF
:100FA00090935D0280935C02FD01329644C0FD0186
:100FB000E20FF31F81939193225031092D933C93BB
:100FC0003AC020915A0230915B02232B41F42091C8
:100FD00047013091480130935B0220935A022091DF
:100FE0004501309146012115310541F42DB73EB739
:100FF0004091490150914A01241B350BE0915A025E
:10100000F0915B02E217F307A0F42E1B3F0B2817A9
:10101000390778F0AC014E5F5F4F2417350748F071
:101020004E0F5F1F50935B0240935A02819391933E
:1010300002C0E0E0F0E0CF01DF91CF9108950F937F
:101040001F93CF93DF93009709F48CC0FC01329774
:101050001382128200915C0210915D02011511054C
:1010600081F420813181820F931F20915A023091A7
:101070005B022817390779F5F0935B02E0935A0277
:1010800071C0D80140E050E0AE17BF0750F412968F
:101090002D913C911397AD012115310509F1D9012D
:1010A000F3CF9D01DA013383228360817181860F42
:1010B000971F8217930769F4EC0128813981260F65
:1010C000371F2E5F3F4F318320838A819B8193831B
:1010D0008283452B29F4F0935D02E0935C0242C0C9
:1010E0001396FC93EE931297ED01499159919E014D
:1010F000240F351FE217F30771F480819181840F6B
:10110000951F029611969C938E93828193811396DC
:101110009C938E931297E0E0F0E0D80112968D91A7
:101120009C911397009719F0F8018C01F6CF8D91DF
:101130009C9198012E5F3F4F820F931F20915A027E
:1011400030915B022817390769F4309729F410921F
:101150005D0210925C0202C01382128210935B0245
:1011600000935A02DF91CF911F910F91089581E072
:1011700090E0F8940C94BC0810E0C2E6D0E004C003
:10118000FE010E944E062196C336D107C9F7F89496
:02119000FFCF8F
:101192000C2A2A2A2A2A2A382C00000000000000E1
:1011A200000000000000000000000000000000003D
:1011B200000000000000000000000000000000002D
:1011C200000000000000000000000000000000001D
:1011D200000000000000005E02800001000000002C
:1011E2000001000800400000010004050D0D0E136F
:1011F2001516191A1C232526292A2C323400000020
:101202000011018D00DA00B800CC0058015B526178
:1012120064696F436F6D6D616E6465725D205374B6
:08122200617274000D0A000066
:00000001FF
